:020000040020DA
:10200000C0440020359A200091FD20008FFD200063
:102010008FFD20008FFD20008FFD200000000000BC
:102020000000000000000000000000008FFD200004
:102030008FFD2000000000008FFD20009BF020009D
:10204000E9F62000EFF62000F5F62000FBF6200070
:1020500000000000990021009F0021008FFD20005A
:102060008FFD2000000000000000000000000000C4
:1020700000000000000000008FFD200000000000B4
:1020800000000000000000008FFD20008FFD2000F8
:102090008FFD20008FFD20008FFD20008FFD200090
:1020A0008FFD20008FFD20008FFD20008FFD200080
:1020B0008FFD20008FFD20008FFD20008FFD200070
:1020C0008FFD20008FFD20008FFD20008FFD200060
:1020D0008FFD200000000000000000000000000054
:1020E00000000000000000000000000000000000F0
:1020F000000000000000000011CD200021CD2000D4
:1021000000000000000000000000000000000000CF
:1021100000000000000000000000000000000000BF
:1021200000000000000000000000000000000000AF
:10213000000000000000000000000000000000009F
:10214000000000000000000000000000000000008F
:10215000000000000000000000000000000000007F
:10216000000000000000000000000000000000006F
:10217000000000000000000000000000000000005F
:10218000000000000000000000000000000000004F
:10219000000000000000000000000000000000003F
:1021A000000000000000000000000000000000002F
:1021B000000000000000000000000000000000001F
:1021C000000000000000000000000000000000000F
:1021D00000000000000000000000000000000000FF
:1021E00000000000000000000000000000000000EF
:1021F00000000000000000000000000000000000DF
:1022000000000000000000000000000000000000CE
:1022100000000000000000000000000000000000BE
:1022200000000000000000000000000000000000AE
:10223000000000000000000000000000000000009E
:10224000000000000000000000000000000000008E
:10225000000000000000000000000000000000007E
:10226000000000000000000000000000000000006E
:102270008FFD2000A12F2000C52F2000F932200063
:10228000354C2000DD7020008FFD2000024A1368CD
:1022900043F030031360704700700D400E2870B596
:1022A00006460BD1134B1C6844F00200186012481C
:1022B000056825F03F0343F0010303600F480368FE
:1022C00023F0FF031A43114331430D4A01601368A1
:1022D0001B06FCD50B4B0C4A1B68106803F0FC0373
:1022E00043EA00230E2E18B201BF034B1D60014BC1
:1022F0001C6070BD34000144F486084008700D4035
:1023000000700D400C700D4010700D40FF2310B593
:10231000064C4FF4FA60236000F0CCFE302200211E
:102320000620FFF7BBFF0023236010BD00920D4085
:10233000802870B51ED100240F4E104D3368224600
:1023400023F0800333602B68072143F080032B6068
:102350000B4B20461C6001F0E1FC3368012223F0A6
:10236000400333602B68062123F0400320462B6096
:1023700001F0D4FC002070BD20940D4000940D406D
:1023800000920D400A4608B50146054802F0D4FC0B
:1023900004480DF0FAFA04480DF0F7FAFEE700BF22
:1023A000180621003D0621005C0621002DE9F341BD
:1023B00003880446BBB1B3F5867F2DD1822915D1A0
:1023C0000DF09EF9BFF35F8F0022164B1E681A6056
:1023D000BFF35F8F0DF098F9134D144FDFF8508065
:1023E00055F8040B20B94FF486732380012016E0C2
:1023F00090F8493026FA03F3DB07F1D501F068F8CD
:102400000028EDD03B684246009355F8043C022179
:10241000184601F009F8E3E700230380032002B027
:10242000BDE8F0814C0800206804002060340020E2
:102430008D242000034A136803430348136002F00D
:102440009DBD00BF4C080020FC05002013B50446CC
:1024500090F84A308021013380F84A30084B094A0D
:102460001B6800930346203000F0DEFF2246002068
:10247000054B197802B0BDE8104002F03FBD00BF27
:10248000603400204D242000B13C002073B5044688
:1024900001F01EF840B304F12006304601F018F8B0
:1024A000054620460CF0BEFD012815D1E5B10025FA
:1024B0000E4B0F4A1B687E2100933046234684F85A
:1024C0004A5000F0B1FF22460A4B2846197802B064
:1024D000BDE8704002F012BD30B92DB9304600F0B1
:1024E000E1FF2246044BF0E702B070BD60340020EB
:1024F0004D242000B23C0020B03C00202DE9F843E0
:1025000002F09AFC334B344E187002F095FC334BBA
:10251000334D187002F090FC324B334F187000238B
:10252000B360324BDFF8D080DFF8D090736055F89D
:10253000041B39B92E4802F009FDBDE8F8432648CE
:1025400001F06EBB012491F849304A6CD9080903A7
:10255000C85903F0070304FA03F320EA0303CB513D
:1025600055F8043C93F84930D908090351F808009C
:1025700003F0070304FA03F320EA030341F80830E9
:1025800055F8043C42F08C0193F8490001F0E4FA5C
:1025900055F8043C93F84930DA08120352F8091050
:1025A00003F0070304FA03F30B4342F8093055F82C
:1025B000043C93F84930DB080E4A04FA03F3136035
:1025C00055F8043C93F849309C40B3681C43B46010
:1025D000ADE700BFB23C002040080020B03C002026
:1025E00068040020B13C002020940D4035242000D8
:1025F000FC05002000E100E000940D4010940D4027
:102600000B4B1A689207FCD41B685B065EBFED2279
:10261000084B1A60084B1B6813B1EF22054B1A6078
:10262000064A0120137803F07F031370704700BF40
:102630004C860840388808402C8608409E2B002095
:10264000044B186800F02200A0F1200358425841C2
:10265000704700BF4C860840024B186800F04000ED
:10266000704700BF4C860840074B93F90020002AB2
:1026700008DBED21054A1160E32111601A7862F050
:102680007F021A70012070479E2B00203888084076
:1026900010B50A4B04461B6813F03F0302D0FFF746
:1026A000AFFF0123064904EB84022C3A0A600BB108
:1026B000FFF7DAFF034B1C7010BD00BF48860840CF
:1026C0003C8608402A08002010B50C46002900F07E
:1026D000AD80192800F2AC80DFE800F00D1E212843
:1026E0002A40495C61767F7AAAAAAA9698599AAA42
:1026F0009C9EA0A2A4A64F4B186810F0FF0001D129
:10270000206008E04C4B1B6813F0030F0CBF012343
:1027100002232360002010BD484B1B78F9E7484B8B
:102720001A68043B1B6843EA0223F2E7454BF7E7CC
:1027300000230B60444B404A1B6803F001030B600D
:102740001268900644BF43F002030B603F4B1B78B6
:10275000002BDFD00B6843F00403DAE700203C4B8A
:1027600008601B78002BD5D001230B60D3E7394BD1
:1027700039491A680023D2B201EBC30000799042B4
:1027800002D851F83330C4E701330E2BF4D16FF087
:102790001703BEE7314B1B685BB2493BB9E7304BCF
:1027A0001B6899060ED1FFF75FFF01222D480368D1
:1027B00059B28031FBD0493B59B20AB1FFF720FF33
:1027C0002160A7E70022F1E7274B93F90030A0E74B
:1027D000264B1B7803F07F039BE7214B1B689A066F
:1027E00010D1FFF741FF012221490B68DB07FCD51F
:1027F000204B1B6803F003032360002A8AD0FFF7F5
:10280000FFFE87E70022EFE70B2382E71A2380E72A
:1028100007237EE703237CE720237AE70C2378E76E
:10282000082376E700206BE77D2372E7022072E73A
:10283000012070E72C860840248608402A080020E2
:10284000CC850840D4850840008608409D2B002098
:102850002B0800204086084050042100588608407C
:1028600048860840608608409F2B00209C2B002053
:10287000648608409C86084008B50B4B1B68990687
:102880000FD1FFF7F1FE012308490A68D207FCD5F2
:10289000074A1168C1F300110BB1FFF7B1FE0846FA
:1028A00008BD0023F0E700BF488608406486084062
:1028B0004C8608400C280DD1082A0DD161B1074B78
:1028C000074A083111F8010D43F8040B9342F9D17E
:1028D000002070470120704702207047A8850840FB
:1028E000C885084070B52E4E0246306810F0400092
:1028F00007D02C4D2868040604D5ED2200202A4B71
:102900001A6070BDC0B20428F7D902388842F4DCDE
:10291000C4B2032C1ED12B6813702B6853702B6824
:1029200093702968214B493949B219702B68204DA1
:1029300018062B70E1D5042089B202F057F92978E6
:10294000032001F07F0102F051F91A4B1B78CBB143
:102950002046D6E71119032001390AF093F9164BE6
:10296000611E032043EA01110AF096F903200AF0E0
:102970009DF903200AF0B2F903200AF0BBF9002800
:10298000FAD1CEE733685A06E2D533681B0603D581
:102990000A4802F0F3FADBE7ED22034B1A60D7E7AF
:1029A0004C86084028880840388808409F2B002023
:1029B0009C2B00209D2B002002C0010C0C06002047
:1029C0007D2938B505460C4623D8134A13689B0762
:1029D000FCD4124B93F90030002B01DBFFF744FECF
:1029E000EE220F4B02201A60A21C013C43F8102C6F
:1029F00029190AF03FF90B49022041EA04110AF0B3
:102A00004BF902200AF052F902200AF067F900207F
:102A100038BD0120FCE700BF4C8608409E2B0020FB
:102A20003888084002C001C00C282DE9F0470C4648
:102A300010D1082A40F0828000297FD0404B414AC3
:102A40004C1E53F80419934204F8011FF9D10020D9
:102A5000BDE8F0870D2867D1042A6FD100296DD019
:102A6000394B3A491A68DFF8F88022F007021A60F9
:102A70000A68374F42F008020A60D8F800003A6846
:102A80001D68DFF8E0E0DFF8E0C025F070051D60AC
:102A9000DEF80050DCF80060C0B2120240EA0660C6
:102AA00092B202434FEA05492A4809F47F09D0F857
:102AB00000A042EA09061A685FFA8AF522F00702C6
:102AC00042F001021A600A6842F008020A60D8F86F
:102AD00000203F68196821F0700141F01001196071
:102AE000DEF80010DCF800C0D3B23A0243EA0C630F
:102AF00092B213430A04016802F47F0243EA020817
:102B00005FFA81F904F0ACFAB6EB080165EB090550
:102B1000ED0307460023C8030F4A45EA51410BF075
:102B20004FFF3F1A276092E7132805D1042A05D1E9
:102B300021B10A4B0B608AE7012089E7022087E771
:102B4000C4850840A48508401088084004880840CF
:102B5000188808401C8808400048E801EC0521005E
:102B60001488084024880840208808407D28F8B54B
:102B700043D8234B93F90030002B18DB04F070FA94
:102B80000446FFF771FDC4F1FF2404F57F04F63419
:102B900004F066FAC442FBD401261A4B1B7843B9F1
:102BA000194C2368990609D502210846F8BD00266C
:102BB000F3E7FFF761FE0028F2D1F5E7E9220425EB
:102BC000124F3A6023689A0703D4013D15F0FF05C0
:102BD0000AD123689B070BD4EE2301213B60002E12
:102BE000E3D0FFF70DFDE0E7062000F063FAE9E728
:102BF000216811F00201FBD1F1E70121D5E700BF07
:102C00009E2B00202B0800204C8608403888084066
:102C1000224B1870002836D0214A13681B03FCD5BC
:102C2000204B1A6842F002021A601A6842F0010250
:102C30001A601A685007FCD51A6822F001021A605F
:102C40001A685107FCD41A6842F002021A601A6826
:102C500042F001021A601A685207FCD5124A136842
:102C600023F004031360D2F8A83123F00403C2F860
:102C7000A8314FF400520D4BC3F89020BFF34F8F93
:102C8000BFF36F8F7047084A136843F00403136063
:102C90004FF40052054B1A61704700BF9D2B002076
:102CA00004200D40048808408C86084000E100E0C4
:102CB0002DE9F0412E4F3D7815F0010555D1012445
:102CC000F8222C4B4FF07F081C605C609C60A3F5E1
:102CD0009323A3F514731A600922C3F890211522D7
:102CE0001A670B22703303F59B2303F59E731A605A
:102CF000A3F59B23A3F5A6731C604023D5221E4E8B
:102D00003360336843F0200333601C4B1D60C3F80D
:102D100048809A631A4B1878FFF7BAFC336823F09F
:102D20000C033360174BC3F800804FF48042164BFE
:102D30001A61022009F0C6FF1449022009F0A2FF1F
:102D4000032009F0BFFF1149032009F093FF104B46
:102D50001878FFF75DFF0F48294602F0F7F8204684
:102D60003B7823433B70BDE8F0810020FBE700BFC8
:102D70009E2B0020A8200D4024860840088608408D
:102D80002A0800209486084000E100E028880840D6
:102D90009D2B00200C06002038B5038804463BB369
:102DA00040F28542934228D1822924D1154B1B78C9
:102DB00073B901F0C5FE01F057FE8021FFF792FDC7
:102DC000002805DD80B201F033FE0F4BDB68984729
:102DD0000E4B1A7852060BD500221A700C4B1D6848
:102DE000FFF70EFCFFF764FFAB0601D0FFF73CFCDA
:102DF00040F285432380012002E00023038003206A
:102E000038BD00BF9D2B0020600521009E2B0020B7
:102E10004886084013B50C460E2800F2A380DFE870
:102E200000F0084A52595C787E91A1A1A1A1A1A10C
:102E30009600012904D1FFF717FC002002B010BD55
:102E400011B9FFF7DDFBF8E78B1E012B00F28C8038
:102E5000002001A9FFF738FC022C019B19D1022B9D
:102E6000EBD05A1E53425341404A1370FFF7C8FB40
:102E70003F4B404A1968116042221A60D3F8C010D3
:102E80003D4A11601822C3F8C020E922C3F8142279
:102E9000D3E7022BD1D1EF22384B1A60354B1A6899
:102EA000334B1A60344B1A68354B1A602F4B1B7822
:102EB000002BC2D0BFE7A1F10B030F2B54D8C8B22F
:102EC000FFF7E6FBB9E72F4BCAB2C4F307241A6039
:102ED0005C60B2E72C4BCAB2F7E731F0070343D18D
:102EE0002A4B11F0010F1A68C1F3800014BF42F0A1
:102EF000010222F001021A601D4B11F0020F1A6844
:102F000014BF42F0200222F020021A60FFF780FE78
:102F100093E731F0010027D11D4B19708EE701F1C5
:102F200018031F2B20D80D231A4A52F833108C4255
:102F300005DC02EBC3031A79174B1A607DE7013BEE
:102F4000F3D27AE7154BCCB249341C6075E70129FE
:102F50000AD8074B1A6811B122F00C02EDE742F0D3
:102F60000C02EAE7012069E7022067E7A02B0020B6
:102F70002486084050080020540800203888084063
:102F8000E4860840C8850840D0850840008608408F
:102F90002B08002050042100408608405886084035
:102FA00008B5054B1B7813B9044801F0E7FF002270
:102FB000034B1A6008BD00BF9D2B00200C060020AB
:102FC00034880840064B07481A68042A1FBF064980
:102FD0000A7842F040020A7000221A6001F0CEBF67
:102FE0002C8808400C0600209E2B00202DE9F84379
:102FF00004F036F810490246D1E90045AC46A0423B
:1030000038BF05F1010C6346C1E900230B48D0E944
:103010000089B8EB040169EB05048E1844EB0C073A
:10302000C0E9006700F006FB18B1BDE8F84300F006
:1030300085BABDE8F88300BF3808002030080020BA
:10304000E0210D4B0D4A5A600D4A82F823100022F0
:1030500007219A6019600B490B6843F001030B606C
:10306000094B1A60042243F80C2C012243F8082C67
:103070000F22DA62704700BF10E000E047E801006D
:1030800000ED00E008200D400C000340034BD3E9A5
:103090000023100A40EA0360704700BF3808002090
:1030A000034BD3E90023D00B40EA4340704700BFF5
:1030B00030080020054B186053F81C2C1C3B42F0D4
:1030C00001021A601A68D207FCD470472800034036
:1030D00010B5064C236823F001032360FFF786FF39
:1030E000236843F00103236010BD00BF10E000E03F
:1030F0002DE9F0410CF02DFCFFF7A2FF0CF08CFD48
:1031000001F0A4FE0021614801F020FF00F082F9E7
:103110000BF06EF906F01CFC01F0A4FD01F03AFF83
:103120005B4B5C4F1B68DFF8BC8198475A4D7B684E
:103130009847D8F804309847AA79EB79574E584CFD
:1031400003EB022333802368022B69DD554A56497D
:10315000564801F0F1FD56480CF017FC2368022B8D
:103160005EDD504A5049514801F0E6FD514B52484E
:10317000196801F0E1FD2368022B51DD494A4A49F3
:103180004A4801F0D9FDD8F800104C4801F0D4FDB0
:103190002368022B44DD434A4349444801F0CCFDF7
:1031A0003968474801F0C8FD2368022B38DD3D4AE5
:1031B0003D493E4801F0C0FD4AF6CD31414801F09D
:1031C000BBFD2368022B2BDD364A3749374801F017
:1031D000B3FD04213C4801F0AFFD2368022B1FDD45
:1031E000304A3149314801F0A7FD3188374801F0B4
:1031F000A3FD2368022B13DD2A4A2B492B4801F03B
:103200009BFD334801F098FD2368022B08DD28461A
:1032100000F0EAFE2368022B02DD0A200CF0B3FB6B
:103220002C4A2B68002113606B682B48536001F017
:103230008DFE4FF0FF3009F0CBFE23680546022BD0
:1032400013DD184A1849194801F076FD234801F0AA
:1032500073FD2368022B08DD284600F0B5FE2368C5
:10326000022B02DD0A200CF08EFB01F021FD1C4830
:103270000BF0CEFE0BF0C2F801F0EEFD04460BF0B1
:10328000C3F8002CF8D10CF06EFBF5E72C060020FB
:103290001804210060052100703C0020281F002038
:1032A0004C060020EB062100F0062100F506210067
:1032B00004072100E40421003A0721004907210006
:1032C000540721005F07210079072100AE07210084
:1032D000BB072100543A002060070020D0072100DE
:1032E000DC04210050052100024B1868B0FA80F080
:1032F0004009704700B708404FF40042084B10B532
:10330000C3F89021C3F89020BFF34F8FBFF36F8FA6
:10331000044C206818B101F031FE0023236010BD79
:1033200000E100E058080020064A136843F0020359
:103330001360536843F002035360936843F0020341
:103340009360704748200D4007B50C4800F0F2FE2E
:10335000FFF7EAFF0A4B1A6842F002021A600022E5
:103360000192019A0F2A06DD1A6822F002021A6001
:1033700003B05DF804FB019A0132F1E7E932200065
:1033800054200D40064A136823F00203136053686B
:1033900023F002035360936823F0020393607047A5
:1033A00048200D40F8B503880546BBB1452B27D111
:1033B00088291BD1144B1C68B4B1231D9A421DD11E
:1033C000214611480CF0CAF9104E62693768326024
:1033D000A2690AB1E0699047376005E00A4B1C68B2
:1033E00034B901220A4B1A7045232B8001200AE0D0
:1033F000A168201D0BF06CFE2468F1E72468DBE770
:10340000002303800320F8BD5C0800206034002006
:10341000A12B00200021024B0248196001F096BD4B
:103420005C0800201C06002070B50446E3610B4BCD
:10343000049D1B78C4E905526BB1094D094B2E68F8
:10344000201D2B600BF044FE2E602146BDE870402D
:1034500005480CF096B9A160F7E700BFA12B00204A
:10346000603400201C0600205C08002070B5094B69
:1034700004461B783BB1084D084B2E6804302B6086
:103480000BF02FFE2E602146BDE8704004480CF082
:1034900078B900BFA12B0020603400201C0600205A
:1034A0005C08002010B5084B04461B7843B104307B
:1034B00000F0C8F82146BDE8104004480CF04EB9B1
:1034C000C0E90333F6E700BFA12B00205C08002011
:1034D00008B5084B01461B7823B10069B0FA80F0AB
:1034E000400908BD04480CF060F980F00100C0B24A
:1034F000F7E700BFA12B00205C08002010B50D4CA1
:10350000236813B90C4A136010BDFFF7BFFD226892
:10351000D2E900310B441B1A92681AB91844064BC1
:103520001860F1E7D2E900142144091A8B4228BF40
:103530000B46F1E76408002060080020014801F014
:103540001DBD00BF2C0600202DE9F8430388054669
:1035500053B1592B48D1872921D1002024490B6828
:1035600063B918B10B6001E0214A136059230120AF
:103570002B80BDE8F88301203346F1E7D3E90264EC
:103580009442F8D000B10B6019460B4689680029B7
:10359000ECD0C8689042F8D189689960F4E7822934
:1035A000E4D1134F4FF00009B84600263C68002CC8
:1035B000DCD020460CF00BFC98B122468821E06854
:1035C00001F09CFC58B9A368E0602EB1B360C4F868
:1035D0000890FFF793FFE8E7C8F80030F7E7FFF738
:1035E000ADFF2646A468E2E7002303800320C0E77E
:1035F0006408002010B50446FFF7A0FFE3680B4AFB
:103600000BB1136833B90A4B1B68E360136814608D
:10361000A36004E0A34206D1054A1268DA60BDE85F
:103620001040FFF76BBF9B68ECE700BF6408002009
:1036300060340020024B1868003818BF0120704722
:103640006408002010B50B4A04461368834208D171
:1036500083681360FFF752FF0023C4E9023310BDF3
:103660001346002BF8D09A68A242F9D1A2689A605A
:10367000F0E700BF64080020014B1888704700BFC6
:1036800028080020014B1880704700BF2808002040
:1036900013B500210446019170B101AA10300BF05E
:1036A00032FD019B43B1074AA38B12889A4206D090
:1036B0004FF6FF72934202D0002002B010BD0120ED
:1036C000FBE700BF28080020F8B50E461546044663
:1036D00008B90020F8BD407E40B1022804F108017D
:1036E0000CBF022708270BF0A9FD28B146B10F49EE
:1036F00030460CF01EF803E0082FEAD1002EF7D177
:10370000E07D38B10228214614BF082602260BF0BE
:1037100095FD28B145B1054928460CF00AF803E0AB
:10372000082ED6D1002DF7D10120D3E7E4052100E2
:103730002DE9F043012906468846144687B003DC8C
:10374000002007B0BDE8F08303A90BF011FE03AB26
:1037500003CB1B88206123839DF811306161002B0E
:1037600047D0B71C02AA01A903A80BF0CCFC9DF816
:103770001350002D4ED0029B2BB17A7817F8023BE4
:1037800003EB02239BB2022DA38336D13D46204694
:1037900032490BF0CEFF7B78237015F8023B637043
:1037A0009DF81590B9F1000F4ED0019B002B38D039
:1037B0002F466A7817F8023B03EB0223029A9BB26A
:1037C000E38302B9A383B9F1020F2ED13D46234909
:1037D00004F108000BF0ADFF7B78237215F8023B73
:1037E0006372A81BA8EB00038045C4E90E53A7DB56
:1037F000A7E7B378F71CA376B4E7032D0FD107F141
:1038000008052B46621E13F8011D9F4202F8011F96
:10381000F9D1C5E7204611490BF08BFFA5833D4642
:10382000BEE7A38B2F46E383CDE7B9F1030F13D196
:1038300007F108052B4604F1080213F8011DBB42ED
:1038400002F8011BF9D1CCE7044904F108000BF0A0
:1038500070FFA4F81E90C4E73D46C2E7E4052100CE
:103860002DE9F0470646144612B94FF0FF3073E0D9
:103870004FF0000C0346E1466546DFF848A282F8A7
:1038800003C021B9981BBCF1000F65D145E00129A7
:10389000EBD99846587818F8022B8F1E42EA00227E
:1038A000BCF1010FFFB24FEAD23038D0BCF1020FA9
:1038B00054D0BCF1000F40F003810028D5D102F0B4
:1038C0007F05C2F3C7127E2A1CD07F2A21D0AF42C7
:1038D000CBD31E2AC9D1022DC7D1DA789B7843EA0F
:1038E0000223D90BA17019051AB246BF43EA0A0395
:1038F0001BB2C2F30B0323807F1B844608EB050336
:10390000F9B2BEE7002DB0D1A8EB0603E3700120A9
:10391000F2E7002DA9D1A8EB0600E0701CE000281A
:10392000A3D0C2F30A05C2F3C322052A07D00F2A87
:103930000ED0012A99D1A94602200025DCE79A7809
:10394000C92AD9D1033323656B1EA4F85430D3E7B9
:10395000002D8AD1A8EB0600BDE8F087B9B2002897
:1039600040F08980D5B28D42C2F306223FF67DAF8A
:103970001B2A1AD01C2A66D01A2A7FF476AF062D8D
:103980007FF473AF9A78A260D97842EA0122A260EC
:10399000197942EA0142A260597942EA0162A260C1
:1039A0009A792273DB7923742CE0002D3FF45DAF0C
:1039B0009A783AB3012A7FF458AF987904283FF7F0
:1039C00054AF421C02EB820295427FF44EAF0122BB
:1039D00084F82A20DA78073384F82B2013F8021CA5
:1039E00013F8032C42EA01220021A28513F8012CCE
:1039F00084F82E2004F13002884203F1050302F11D
:103A000006020ADCAB1CA9EB0309B9F1000FFFF6B3
:103A10002CAF3FF47CAF02206EE713F804EC13F8F0
:103A200005CC01314CEA0E2C22F806CC13F802EC3E
:103A300013F803CC4CEA0E2C22F804CC13F801CC7A
:103A400002F802CCD8E7012D02D0192D7FF40DAF7A
:103A50009A78192D6274D5D104F1120103F118007E
:103A600093F804C0DA78023342EA0C22834221F848
:103A7000022BF5D1C6E7C2F30A058D42C2F3C32279
:103A80003FF6F3AE092A7FF4F0AE002D3FF4EDAE21
:103A90009A78012D84F84820B4D0D97A9A7A42EAEB
:103AA0000122042AA4F84A20ACD802F10C018D426C
:103AB000A8D103F10C0104F14C000BF02BF9A1E7A4
:103AC000604619E700F0FFFF30B591B005464FF6AC
:103AD000FF74FFF7D1FDA04204D14FF0FF34204620
:103AE00011B030BD4022002168460BF0F3F901F01F
:103AF00099F86A46014617480BF0A7FD01F092F8C5
:103B0000F8B1ADF800400C2001F084F8014602A89D
:103B10000BF00FFE00F0A8FF0E9000F093FF0F9047
:103B200068460BF09AFB0446002DD8D000F0CEFF7B
:103B30000028D2D000F082FF014668460BF0D5FB8A
:103B4000CDE70D2001F066F8014668460BF0F1FD67
:103B5000D9E700BFF94B20002DE9F8430F460123B8
:103B600000F0070103FA01F64FEAD00917F00C0341
:103B70006FEA0605DFF8A4804FEA093417D154F83C
:103B800008302B4044F8083017F0030230D1484683
:103B900000F0C4F83A0654F808302FD42B4044F80B
:103BA00008301B4AA3581D40A550BDE8F883042BDC
:103BB0000BD1184AA3582B40A3500432A3582B40D2
:103BC000A3500432A35833430CE0082B0CD1114A04
:103BD000A3582B40A3500432A3582B40A3500432C7
:103BE000A3582B40A350CFE70C2BCDD1094AE5E7D2
:103BF000022ACCD0012ACDD10422C8E7334344F8AD
:103C000008300120044B00FA09F01860C9E700BF32
:103C100020940D4004940D4000E100E010940D400C
:103C2000014601480BF0ADBD6808002038B50546D7
:103C3000054B1C6804B938BDA068284002D06368F1
:103C400003B198472468F5E7680800200022014B7B
:103C50001A607047680800202DE9F0410546DFF83A
:103C60003C8000F0F3F90B4B2E03F75856F8084050
:103C7000ED00EC4047EA0400C0B2A840FFF7D6FFD1
:103C8000E4B2054BFFB2AC40F75046F80840BDE83F
:103C9000F08100BF18940D401C940D4018970D4002
:103CA000134B1B783BB101F52011124B2731013822
:103CB000994217D17047104A1278122AF3D10F4A4D
:103CC00012784B2AEFD108448B4200DB704703F592
:103CD0002012032BD4BF2C3224321278013300F887
:103CE000012DF1E711F8012900F8012FE0E700BFED
:103CF0002B002800270028002A002800290028007F
:103D0000034B044A1A60044B803A1A60704700BFA4
:103D10006C08002080400D4070080020034B01EB30
:103D2000C0011B6843F82120704700BF6C080020C9
:103D3000034B01EBC0011B6843F82120704700BF13
:103D4000700800200021F0B50125FF260F46104C19
:103D500040FA01F3DB0711D5227894F801C0D308AB
:103D60001B0303F1804302F0070203F5592305FA10
:103D700002F2BCF1000F07D043F822700131042990
:103D800004F10204E4D1F0BD43F82260F6E700BF7D
:103D90000F082100F0B500210126FF270E4C40FA44
:103DA00001F3DB070ED522786578D3081B0303F1F6
:103DB000804302F0070203F5592306FA02F23DB1EF
:103DC00043F822700131042904F10204E7D1F0BD67
:103DD00043F82250F6E700BF0F082100F0B400219D
:103DE00001260D4F0D4D0E4C17F811300131DA0838
:103DF0001203505903F0070306FA03F320EA030005
:103E000050511059042943EA00031351ECD1F0BC7E
:103E10000F20FFF7BFBF00BF0F08210020940D4007
:103E200000940D4010B50948FFF720FB084800F04A
:103E3000E3FA0146064C01B910BD0B7A20465B0837
:103E40000B7200F0B3FA0146F5E700BF3C340020E6
:103E50003C060020014601480BF035BD3C06002021
:103E6000F8B531F0020307460E46154601D0062983
:103E70002DD139461B480BF026FD044628BB36BB26
:103E8000334608223946174800F004FB0446F0B1D7
:103E900047F6FF73C380FFF7F9F8237A20602B44BD
:103EA000102BA8BF10232046022E237208BF0C350A
:103EB0000BF02DFCA18800284FEAC51514BF0A227B
:103EC0001922ADB221B9A58001E0062EE3D1F8BDDB
:103ED0005543C2F1640301FB03556423B5FBF3F5BD
:103EE000F1E700BF3C06002038B50546042000F08D
:103EF00083FE294604B21C480BF0E5FC034648B992
:103F000008222946184800F0C5FA034640B347F690
:103F1000FF72C28047F6FF71B3F906208A4208D0CB
:103F20000A2044435A2000FB0244642294FBF2F42A
:103F300024B299882246DC8091B947F6FF718C4201
:103F40000FD05A3212B222EAE2721E2AA8BF1E22F3
:103F50001E21D201B2FBF1F202F5807292B29A8078
:103F600038BD4FF48072FAE73C06002038B50848A7
:103F700000F042FA0446064D04B938BD21462846F1
:103F800000F0E0FA2146284600F010FA0446F3E774
:103F90003C06002007B50021074800F0EFF9074B69
:103FA0004FF4E1311B68064A009306480023FFF7EF
:103FB0003BFA03B05DF804FB3C06002060340020AF
:103FC000253E20003C34002000B58BB0024628215D
:103FD00068460AF091F96946024800F0ADFE0BB060
:103FE0005DF804FB1708210070B5054688B90A483A
:103FF000BDE8704000F0A0BEE30702D42E200BF015
:10400000C2FC295D3046013400F096FE082CF3D145
:1040100070BD0024014EF4E71A0821002908210090
:10402000084B19461A68D002FCD4074B1A6822F4D0
:1040300080321A600A68D203FCD41A6842F4003253
:104040001A60704704200D4000200D4010B50A4C46
:10405000236898070ED0094B1A4619684901FCD409
:1040600013685B01FCD5FFF733F8FFF7D9FF23682E
:104070000023236010BD00BF58200D4004200D40D8
:1040800038B5264B1C6814F03F0414D1244D55F864
:10409000043B23B1984770B10134052CF7D1214D71
:1040A0002B7843B102F0D6FF044602F0D9FF201A64
:1040B000092800D90CB930BF27E01B4B1A6822F43D
:1040C00000321A60194A11461068C002FCD41A68FE
:1040D00042F480321A600B68DB03FCD502F0C0FFAB
:1040E000241A092C03D8BDE83840FFF799BF632C88
:1040F0000F4C0BD92B78022B08D1236000F0F2FE75
:1041000030B1FFF78DFF0023236038BD0123F4E7B2
:1041100002F0A0FF0028F4D02368CCE748860840CE
:1041200034090020A22B002000200D4004200D4067
:1041300058200D40074A10B50023144652F8041BBE
:10414000814202D011B944F8230010BD0133052B80
:10415000F4D1FAE7340900200022054B1A60054A21
:10416000136943F0040313610122034B1A70704773
:1041700058200D4000ED00E0A22B002008B500F013
:1041800079FF014B187008BDA32B0020034B0620BC
:1041900019784A1C1A7000F029BD00BFA32B00201B
:1041A000F8B5FEF773FF114D074600242E460C208C
:1041B00000F030FD29460BF0C1FA78B1062000F07E
:1041C0001BFD06EB0414237B83420CD1A068381A34
:1041D000B0F5206F8CBF00200120F8BD0134102CF9
:1041E00005F11005E3D10020F7E700BF48090020E2
:1041F000F8B5184D00242E460C2000F00BFD294682
:104200000BF09CFA013418B9102C05F11005F3D10C
:10421000651E06EB0413A3F110077DB9062000F01C
:10422000EBFC3073FEF732FFB0600C2000F0F2FCC4
:10423000BDE8F840014607480BF07BBA3C46013D1B
:10424000203B224618685968083303C2BB42144613
:10425000F7D1E0E74809002030B1054B9B68C01A50
:10426000044B8010584370474FF0FF30704700BF39
:1042700050060020ABAAAAAA38B50B4D0B4B00285C
:1042800018BF05461C6814B94FF0FF3038BD2846EA
:10429000211D0BF053FA20B12046BDE83840FFF74E
:1042A000DBBF2468EFE700BFE4052100680A0020B7
:1042B00008B502460BF0E0FA431C17BF044B002080
:1042C000185C13681CBF184100F0010008BD00BF56
:1042D000C42B00202DE9F84304460E460027DFF8E2
:1042E000788058F8042BA2B1D2F80890B9F1000FE9
:1042F0000FD02046FFF7B0FF014610460BF0B2FA90
:10430000014605461046FFF7D3FF012801D1284694
:10431000C8470137082FE4D12046FFF79DFF002250
:10432000094B1A542046FFF797FF084B21461A54B1
:1043300007480BF013FA2EB12146BDE8F8430548B3
:104340000BF05EBABDE8F883C42B0020A42B00203C
:10435000680A002050060020480A002050B1036877
:10436000072B06D8044A52F823301B1A58425841EA
:1043700070470020704700BF480A002010B504466F
:10438000FFF7ECFF10B1A160012010BD054A1368D2
:10439000072BFAD8581C1060034A2360A16042F82A
:1043A0002340F1E72C0B0020480A0020F8B5054611
:1043B0000C460C270F4B9E68214628460BF05CFAF2
:1043C000431C14D007FB00F3F01800D0F058FFF79F
:1043D00043FF014628460BF045FA044628B1014642
:1043E0002846FFF765FF0028E6D02046F8BD0020EC
:1043F000EDE700BF5006002038B50B4B05461868A6
:10440000FFF72AFF014628460BF02CFA0446014626
:104410002846FFF74DFF28B921462846BDE8384019
:10442000FFF7C4BF204638BD680A0020F8B50D4626
:1044300017460BF048FA044620B10024012007B1CA
:104440003C60F8BD2846FFF717FF0130F5D10E4854
:104450000BF0FAF90028F0D10C4B0D4E1D681DB978
:10446000201E18BF0120EAE72846FFF7F5FE335C5F
:1044700013B9291D14B90C462D68F0E720460BF03E
:104480006AFB0446F8E700BF50060020680A0020D7
:10449000A42B00202DE9F3410D46074620B9002446
:1044A000204602B0BDE8F081224B01AA002908BFD6
:1044B0001D462946FFF7BAFF0028F0D02846FFF72F
:1044C000DBFE421C064625D11B4EDDF8048030463B
:1044D0000BF082F9044688B9B8F1000FDFD04046EE
:1044E000FFF7CAFE431CDAD00C23B46803FB004478
:1044F000002CD4D000212046FFF7ECFE21460F48C7
:104500000BF03FF92046FFF7A7FE29460646201D7F
:104510000BF00FF9314638460BF0A4F904467A68DF
:1045200000210AF0D7FC01232246394604480BF04B
:10453000AEF9B5E7E405210050060020680A002026
:10454000C42B002070B50A4604460D4600230146E0
:1045500005480BF09CF9064600232A4621460348ED
:104560000BF095F9304670BDC42B0020A42B002021
:104570000A460123014601480BF089B9A42B00200B
:104580000A460023014601480BF081B9A42B002004
:1045900008B50BF071F9431C07D00C22044B9B6843
:1045A00002FB003000B1043008BD0020FCE700BF72
:1045B0005006002070B5054688B90A48BDE870402D
:1045C00000F0BABBE30702D42E200BF0DCF9295D22
:1045D0003046013400F0B0FB082CF3D170BD00244C
:1045E000014EF4E71A0821002908210070B505469C
:1045F0000E460B4B1C680CB9204609E0012D08D172
:10460000A3680BB92468F6E7304698470028F9D02C
:1046100070BD002DF6D16368002BF3D09847F5E705
:10462000300B00202DE9F0470488054692B0002C9D
:1046300000F0BF80662C40F0FB80804BDB68002BD5
:1046400040F0D7800AF096FC642490FBF4F303FB5F
:1046500014040A207A4F94FBF0F43B88DFF81482AC
:1046600001333B8007F040FBB8F80030754E8DF801
:1046700020303B881434ADF822303388E4B2CDE9E1
:104680000A01ADF82430ADF8304000F0B7FE002844
:1046900000F0B180806A002800F0AD800BF06AFA6B
:1046A0000346002800F0A7800DF1320200F110014E
:1046B00053F8040B8B4242F8040BF9D1DFF8D49184
:1046C00004A8B9F80030ADF842303388ADF8443072
:1046D0005D4B1B88ADF846305C4BD3F814A0D04737
:1046E000002800F0918004AB282208A958480BF05C
:1046F0009FFA584A5849594800F01EFBBDF8463009
:10470000B8F800100293BDF8443055480193BDF845
:10471000423000933A88234600F00EFB08A8D047A9
:1047200000287CD0B9F800300133A9F8003002F03D
:1047300097FC4C4A4C4B04A9186013884448013339
:104740009BB2138050228DF81020B8F80020ADF8ED
:1047500012308DF8112008AB04220BF069FAB9F879
:104760000070002F59D0308809F00CFF04463846FD
:1047700009F00CFF014620460AF010F801464FF000
:104780007E5009F04DFE394909F054FF0AF0A2F8B5
:104790000446304A3049314800F0CEFA2346328888
:1047A000B9F80010324800F0C7FA24480AF099FC22
:1047B0001DE0284A2849294800F0BEFA2D4B2E4812
:1047C000198800F0B9FA2D4804F0B6FF2C4B1B698C
:1047D00098472C4B2246009340F2D2431C4819467E
:1047E00004F0FEF94FF4A06114480AF071FC66234E
:1047F0002B8001201FE00023CDE90D33ADF83230CE
:104800000F93ADF8403059E7124A1F49134800F0A2
:1048100093FA1E480BF0B9F880E76424B9E70D4A13
:1048200019490E4800F088FA19480BF0AEF8BCE7B9
:1048300000230380032012B0BDE8F087340B002072
:104840002C1F0020321F00202A1F0020E40421001A
:10485000480B00202E082100F0062100F50621005B
:1048600057082100301F0020440B00200000C842E0
:10487000DD082100281F00203A082100380521000A
:104880006005210099482000B2082100B6082100E7
:10489000310921002E1F0020F8B5BDF82040079BEC
:1048A000042C7AD11C68414A4149424800F044FA3C
:1048B00041480BF06AF8E7B23C4A3D493D4800F0F8
:1048C0003BFA39463D4800F037FAC4F30726374A29
:1048D0003749384800F030FA3146394800F02CFAB0
:1048E000240C324A3249334800F026FA2146354832
:1048F00000F022FA2D4A2E492E4800F01DFA3248C7
:104900000BF043F8294A2A492A4800F015FA2F48A3
:104910000BF03BF8254A2649264800F00DFA2C4BAF
:10492000274819882B4D00F007FA204A20492148D2
:1049300000F002FA2988234800F0FEF9082E03D07F
:104940000F2E01D0912E1ED14F2F1CD12B88A342A8
:1049500019D1214A214C13880133138002F080FBC6
:104960001F4B13491B68114AC31A4FF47A705843FE
:10497000C00B20800F4800F0DFF921881948BDE8FE
:10498000F84000F0D9B9094A17490A4800F0D4F9AB
:10499000BDE8F84015480AF0F8BF1549034A054834
:1049A00000F0CAF921461348E9E700BF2E082100AC
:1049B000F0062100F5062100610921007909210096
:1049C0008A0921009A092100AA092100BC092100B5
:1049D000281F0020301F0020321F00202A1F002027
:1049E000440B0020CD092100FB092100000A210011
:1049F000B20821003A0A2100014A024B9A6070472E
:104A00000020200000ED00E010B507490B8883422C
:104A100008DB064C80B222880244181A0880012064
:104A2000228010BD0020FCE7341F0020361F00202C
:104A3000014B1880704700BF341F002000487047AA
:104A40006C0B0020014B1888704700BF341F0020FA
:104A5000034A044B10781B781844C0B2704700BF5B
:104A6000D42B0020361F002008B5FFF7F1FF014BC3
:104A7000184408BD6C0B0020F8B50C4B04461E789A
:104A80000B4B1F88F519802D0DDC324609490AF0C1
:104A900041F9FFF7E9FF344401463A4620460AF05F
:104AA00039F92846F8BD0025FBE700BFD42B0020CC
:104AB000341F00206C0B002008B5FFF7C9FF024B24
:104AC0001B88184480B208BD341F002010B5014671
:104AD000FFF7F2FF4318802B12DC431E094A1BB27A
:104AE0001A44481C002B05DA074B187801440120B2
:104AF000197010BD12F80149013B14541BB2F1E7C3
:104B00000020F6E76C0B0020D42B002038B5094DAF
:104B1000094C1822002109480AF0DCF929462046F0
:104B20000AF007FE294604F10800BDE838400AF003
:104B300000BE00BFE4052100783C0020883C002036
:104B40000023044A1380044A1380044A1370FFF7B9
:104B5000DDBF00BF361F0020341F0020D42B0020F3
:104B600038B50C460546FFF7EBFF802C28BF8024A4
:104B70002946224603480AF0CDF8034B20461C8004
:104B800038BD00BF6C0B0020341F002010B5094B4E
:104B900003F1180253F8044B934240F8044BF9D147
:104BA000054B03F1100253F8040B934241F8040B38
:104BB000F9D110BD883C0020783C002010B5094B8D
:104BC00000F1180250F8044B904243F8044BF9D11D
:104BD000054B01F1100251F8040B914243F8040B0C
:104BE000F9D110BD883C0020783C0020014B23F80F
:104BF00010107047883C0020014B33F810007047BC
:104C0000883C0020024B0C3803EBC0000AF091BD39
:104C1000783C0020024B0C3803EBC000704700BF0B
:104C2000783C0020014902480AF088BDE4052100D3
:104C3000803C00204FF48032084B10B5C3F890211F
:104C4000C3F89020BFF34F8FBFF36F8F044C2068E1
:104C500018B100F093F90023236010BD00E100E0DB
:104C6000EC0B002008B5002007F008FF012007F03A
:104C700005FF0D49002007F0CDFF02F045FB0020A5
:104C800000F00AFA07F0DCFFFEF75EFBFEF77AFBA6
:104C900008210648FFF704F8FDF730FC62B6BDE8CE
:104CA000084002200AF029BEC1722000703C00209A
:104CB00073B51A4B1B68022B07DD194A19491A48AC
:104CC00000F03AF819480AF060FE68460821FEF73D
:104CD000E7FF174E9DF806309DF80750F46A45EA45
:104CE00003254AF6CD310220A04729460320A047DC
:104CF0001A210120A0470822736B69460C209847AF
:104D000004F01EFEFDF7C2FA00210A4800F01EF969
:104D100004200AF0F2FD02B070BD00BF4C06002076
:104D2000800A2100F0062100F5062100890A2100F1
:104D300018042100F40600200FB407B504AA52F8A5
:104D4000041B0448019204F0AFFE03B05DF804EBCD
:104D500004B070476C06002038B5836804460D46E1
:104D60009BB10A4804600220A07304F10C0098472C
:104D70000238012801D9832D05D121462046BDE8FE
:104D8000384000F005B80123A37338BD603400201B
:104D9000F8B504461A4D2B68A34203D003B9F8BDF9
:104DA0001B68F9E7002CFAD0164EA37B37684BB18D
:104DB000A3683BB18C4205D000228321346004F10A
:104DC0000C0098472B68A34206D123682B60A37B75
:104DD00053B93760E3E71346002BF8D01A68A242B4
:104DE000F9D122681A60F2E70023A3732D68002D21
:104DF000EFD02246872128460AF0BFFDF6E700BF24
:104E00005C34002060340020002238B50125084BB6
:104E10001A70084B1C6804B938BDE37B2BB1002223
:104E200082212046E581FFF797FF2468F3E700BF62
:104E3000D82B00205C340020034B1878FF2816BFC5
:104E4000421C80201A707047D62B00208A22014B0A
:104E50001A707047D62B00202DE9F0411C4D2B789D
:104E60000BB1FFF7D1FF1B4C2678AEB10C221A49CB
:104E7000DFF86CC00B78013E5A430CEB0200077A56
:104E80000133406803F01F035CF802800B7026704A
:104E900098B9124B1E682EB9287823781844C0B2EE
:104EA000BDE8F0812B780BB1FFF7AEFF30464246EC
:104EB00039460AF062FD3668EDE7812F08BF01230D
:104EC0004246394608BF83730AF057FDE4E700BF46
:104ED000D82B0020D72B0020D52B00205C340020BD
:104EE000F00B0020034B1878034B1B781844C0B21A
:104EF000704700BFD82B0020D72B0020F0B50B4EF9
:104F00003378202B0FD00C25094C0A4F24781C44F1
:104F100004F01F046C433D196860002001332972BE
:104F20003A513370F0BD0120FCE700BFD72B0020C1
:104F3000D52B0020F00B002038B5034C25680AF073
:104F40001CFD256038BD00BF6034002010B40A4C41
:104F50000A4621680B4683420CD04BB950B1016020
:104F600001212060817310BC81218381FFF7E4BFA0
:104F70001B68F0E710BC70475C34002038B1837BBD
:104F8000013B012B9FBF0123014AC373137070477C
:104F9000D82B002008B504480AF00EFCBDE80840F4
:104FA00002480AF009BC00BF8006002074060020F9
:104FB00001480AF049BC00BF7406002038B50E480D
:104FC0000AF00AFC054650B10C480AF005FC0446FC
:104FD000286030B9294608480AF012FC25462846C0
:104FE00038BDFFF749FD04F19A01A4F8800004F1EF
:104FF0008200FFF7CBFDF2E7740600208006002058
:1050000010B50146044607480AF010FC48B1216873
:1050100005480AF0F5FB2146BDE8104001480AF0BA
:10502000EFBB10BD740600208006002010B50146BD
:10503000044609480AF0FAFB68B12468B4F8801005
:105040002046FFF78DFD04F19A0104F18200BDE8CE
:105050001040FFF7B3BD10BD7406002010B5014627
:10506000044603480AF0E2FB00B1206810BD00BF0F
:1050700074060020064A136843F004031360054BCE
:10508000186804331B6840EA032080B2704700BFF1
:1050900000700D4014700D4010B5174A136823F0CE
:1050A0000C0313600122154B1A601A68012AFCD107
:1050B0000822134B13491A60E32203F505731A60A3
:1050C0001A460B68DB07FCD50F4C10210023206823
:1050D000013900F0010043EA00034FEA43039BB2A9
:1050E000F5D1002BF1D00949180A03F0FE0308603E
:1050F0000B60EF23136010BD00700D40A8200D4021
:1051000024860840648608409C86084014700D4040
:1051100070B5164E054633780C46C3B907F0F0FE5D
:10512000134BADB91A4600F1100150F8045B8842E8
:1051300042F8045BF9D184B90E490D480BF047F8E9
:10514000012200210A4807F083FF0123337070BD5C
:105150002A681A606A685A60EDE7214651F8082FFC
:105160009A604A68044B5A60EAE700BFF92B0020B6
:10517000D8290020543A0020E029002013B500214E
:1051800000240846FFF7C4FF2246154B93F8201071
:1051900059B193F82110012907D1197CFE2902D1B8
:1051A000597C802901D003F110040132032A03F154
:1051B0001C03EBD1204607F0F5FE04B968B101F0FD
:1051C000CBFE4023024621460020009300F01CFB4A
:1051D00000F066F9002002B010BD4FF0FF30FAE792
:1051E000DC380020044B187B28B1B3F84E00DB8A72
:1051F000C31A584258417047643400202DE9F843DF
:1052000090461C4CDFF8709007460E464FF4B07283
:10521000002120461D4609F05DFEB9F820304345C7
:1052200002D00020BDE8F88328469DF82420089984
:1052300001F0DCFE0028F4D0F023E3730123237394
:105240004FF0FF33E364A4F850304FF2F003A4F8BA
:10525000583033466773C4F8089006F110051C34C3
:10526000224618685968083303C2AB421446F7D186
:105270000120D7E764340020BC06002013B5437D2D
:105280000446012B02D9002002B010BD90F8513025
:105290000146019390F850300093028A00F13C03DC
:1052A000007EFFF7ABFF0028EDD0144B627D618BD1
:1052B0009A73626D19821A60226A5A61227F9A7407
:1052C000627F1A76E28B5A83002283F85C20A17DEC
:1052D00083F85410217D83F85310E17D83F8552025
:1052E00083F852109B681B689847054801F042FC00
:1052F00001F022FD01F05AFD0120C5E764340020D1
:10530000A10A210030B50A4A137B7BB168B103467C
:1053100002F11C052C322C4603CC944218605960D3
:10532000254603F10803F6D1012030BD1846FCE7FD
:105330006434002010B5FFF755FF104C60B994F8A5
:1053400058200020531CDBB2120658BF03F07F0325
:1053500084F8583001F0B4F8FEF708FE01F074FA52
:1053600008F0CAFB01F04AFD94F841305B0602D513
:10537000034801F027FE0023237310BD643400208E
:10538000903400200322024B83F85C2001F058BDCA
:105390006434002008B50F4B1A7BD2B19A6C511CB3
:1053A00017D0824208D800229A64032283F85C2036
:1053B000BDE8084001F044BD121AB2F5967F9A6428
:1053C00007D2586C28B10AF0D5FBBDE8084000F0C0
:1053D0006FBF08BD6434002008B5074B0146187B39
:1053E00048B193F8402003F11C00D20809F064FC96
:1053F000B0FA80F0400908BD643400200348037B04
:105400001C30002B08BF0020704700BF6434002010
:1054100010B50A4C237B83B1FFF7E4FE08B984F88A
:105420005C00A3681B68984701F00EFA044801F07D
:10543000A1FBBDE8104001F003BD10BD64340020A5
:10544000A60A210008B5FFF7CDFE88B1094B0A482E
:1054500093F852104A1CD2B2090658BF02F07F02DC
:1054600083F85220F022DA73BDE80840FFF7D0BF7E
:1054700008BD00BF64340020B30A2100074B9A7BAB
:10548000187B1AB9003818BF0120704728B193F86B
:105490005C00012894BF0020012070476434002084
:1054A0002DE9F041454C237B002B00F0848004F172
:1054B0006400B4F84E50FDF7F5FF94F85C30032B10
:1054C00012D1002001F098F94FF6FF739D42A4F825
:1054D0004E3004D03A4801F04DFB01F067FCA36860
:1054E000BDE8F041DB691847FFF77CFE074600285E
:1054F000F5D1666C01F0CEF901F07EF9606C01F037
:1055000025F9DFF8C880A4F84E00D8F80000FEF7AF
:1055100073FF054688BBB4F84E201EB1B4F84C307A
:10552000934201D9A4F84C204FF6FF71B4F85030E3
:105530008B420DD08A420BD0D31A002BB8BF5B42EE
:10554000B3F5007F04DD1F48A4F8502001F012FBE2
:1055500094F85B30002BC2D0636C13B33EB90123C7
:10556000194884F85C3001F005FB01F00DFC01F0F6
:105570002BFB002384F85B30B1E7284601F0E6F806
:10558000B4F84E3083420AD92B6813B9FDF77EFD7B
:1055900028602946D8F80000FEF708FFB9E72F6019
:1055A000F7E7074884F85C3001F0E4FA01F088FA84
:1055B00001F0FCFBDDE7BDE8F08100BF64340020B2
:1055C000C10A2100CF0A2100E70A2100E0060020DD
:1055D0002DE9F041544C0746237B0D46F3B1627B25
:1055E0002B7E9A4220D110222946504809F064FBB4
:1055F000D0B96A8AE38A9A420CD3E97D94F85200C2
:105600000AF0F0FA6B8AB8B1E28A934202D14848B4
:1056100001F0B0FABDE8F041FFF742BFFFF7E2FD4D
:1056200020B1237B002BDAD1BDE8F0812846FFF7BB
:1056300025FE0028F5D1F7E74FF6FF72934218BF19
:1056400094F8573094F852101CBF013384F8573047
:10565000E87D0AF0C7FA50B1B4F84E20E38A9A42C6
:105660004ED1EB7D334884F85230FFF7EBFE2A46EB
:10567000012138460AF022FA0028CBD0384601F042
:10568000FBF8064600284CD090F80680384601F01A
:10569000F3F868B938460AF060FD01460028B9D031
:1056A00025482B4601220068FEF7F4FE0028B1D001
:1056B0006B8A83806B7E8371A36C1BB13EB1636C7C
:1056C0009E4204D14FF4F073628B5343A364A37BD7
:1056D000002B9FD0002E9DD0636C9E429AD14146F4
:1056E000687E0AF07FFA002894D0E27B531CDBB27C
:1056F000120658BF03F07F03E37301F065FA89E7F0
:10570000FFF770FD06460028B1D101F077FB304667
:1057100001F072F82846FFF7B1FD0848FFF778FE60
:10572000A5E74FF0F008B1E7643400208034002092
:10573000F20A21000E0B2100E0060020B30A21002E
:1057400010B50A46044621B1BDE81040064801F0F4
:1057500011BA03210AF0B2F920B12046BDE8104089
:1057600000F0C2BD10BD00BF270B210038B50546B3
:1057700091F823000C4668B90A4629460AF055FDFF
:1057800094F92530002B14DA2846218CBDE83840E6
:1057900001F032BAFF2816BF064B4FF0FF335B8B88
:1057A0000A4618BF43432946002008F011F9002893
:1057B000E6D138BD6434002070B5114C0D4694F824
:1057C000591006460AF00EFA08B184F8596094F8A8
:1057D0005830B34213D194F85C306DB2012B07D12D
:1057E000002D05DB0223074884F85C3001F0C2F984
:1057F00001F024FA002DBCBF032384F85C3070BD97
:1058000064340020350B21002DE9F347234C9946E1
:10581000237B06460F4690469DF828A0002B3BD0E0
:10582000102204F11C0009F047FA98BB94F852309A
:105830005D1C1B06EDB201D405F07F05FFF77AFD74
:105840004346012239463046CDE9009AFFF7D6FC9F
:10585000134A012362611E22A373227640F6084395
:105860003C222382628300238022A374A4F84E206A
:1058700084F853304FF0FF32A4F854300223094823
:1058800084F85250A26484F85C3002B0BDE8F0475E
:1058900001F070B9F025D1E7F025D1E7643400209C
:1058A000000480003F0B21004FF4B072002101483A
:1058B00009F010BB6434002010B5124B9A79D2B9AC
:1058C00093F82A10632916D193F82900A8B993F800
:1058D0002B20042A10D10C4A117B81B1547B93F800
:1058E0002D10A14208D1B2F84E0083F82D10020A03
:1058F00042EA0022DA85012010BD1046FCE7084686
:10590000FAE700BF5C3A00206434002070B51C4BFD
:1059100004462B2219881B480AF03DFD06461A480A
:10592000FFF75AFD08B9002070BD1849002008F0A3
:1059300017F815490546002008F012F816B1B3789B
:10594000032B06D00028EED0002DECD04369AB42EB
:10595000E9D122460C4D05F110062B4603CBB3428C
:10596000106051601D4602F10802F6D148F2FE03B4
:105970002380002301206380A380E380D4E700BF5D
:105980004C3A00205C3A0020743A00208034002019
:105990002DE9F04F704B2B22198870488FB00AF018
:1059A000FAFC044608B9002084E08378032BFAD17E
:1059B00090F803A0BAF1000F7BD0057942792B094A
:1059C0000293C3F110030193437805F00F050133EF
:1059D000DB00DBB2A3EB12132B44019A183B93FBC1
:1059E000F2F30133DBB29A450393DCD85C4E0DF140
:1059F000280C96E80F008CE80F002379E1781A094B
:105A000003F00F03C2F1100B012908BF1A464FF033
:105A10000009607867790130C000C0B2A0EB1710B0
:105A20001844183890FBFBF00CEB02030593C2F10D
:105A3000100306934B460130C0B2471AFFB20BFB6E
:105A400007F80490A6F11800261A1036B21A08F1C9
:105A5000080807900892049ABA422ED8029A039B2B
:105A6000BAF1010F18BF1546A3EB0A03019ADBB286
:105A70005A43134608331E44761BB6F5807F92D8EE
:105A8000E618374B0AAF0FCB87E80F00079B05F1ED
:105A900018000344C5F1100818464246314609F083
:105AA00039F942463046791909F034F9E378013B77
:105AB000E37001200FB0BDE8F08F0993089B03EB62
:105AC0000802B2F5807F3FF66EAF069A04EB08013C
:105AD000059809F01FF90AA807F064FA099B50B16C
:105AE00009F101095FFA89F96BB9B9F1010F3FF6C4
:105AF0005AAF012307E00AA8099307F0F7FA099BB8
:105B00000028EDD103469DF82820FF2A3FF44BAF33
:105B1000BDF82820E2B9BDF82C00BDF82A20BDF858
:105B200036100243BDF82E000243BDF83000024398
:105B3000BDF832000243BDF83400024392B251EA8C
:105B400002003FF430AF1AB9B1F5807F3FF42BAFBC
:105B50000137FFB2D8447EE74C3A00205C3A00207F
:105B6000743A002000292DE9F04139DBCA0737D407
:105B70004378002B34D140F26343425A45189A428D
:105B80002ED1194F3B7B5BB37A7BEB789A4227D1BE
:105B9000AE78B30624D4AB880C201C0A44EA032454
:105BA000124BA4B2D3F80080FFF734F80146404608
:105BB00009F089FEB7F84E70A978A74294BF002774
:105BC0000127F609BE42C1F380131CBF41F040011A
:105BD000A97086EA07022146BDE8F04109F040BFFE
:105BE0000020BDE8F08100BF64340020E006002002
:105BF0002DE9F743284D0123298828480DF1070294
:105C00000AF08CFB254F0446002840D1012003B048
:105C1000BDE8F08329884846283989B20AF075FB27
:105C20002A88E31B9A4221DDD21A2046A11909F0E5
:105C3000E7F898F800308DF807309DF80730062B0C
:105C4000E4D0112BE2D03A2BE0D02B2B03D07BB940
:105C5000A378632B0CD1237888F80030667801365E
:105C6000F600704208F0E2FA0028D3D10020CEE717
:105C70002988E31BC91A204600230DF1070289B2C7
:105C80000AF04CFB04460028C0D08046D5E7B94650
:105C900007F10608D1E700BF4C3A00205C3A00202B
:105CA0002DE9F04FDFF8288287B098F80C30C3B1A7
:105CB00048F2FE037F4E328B35469A4211D0337E36
:105CC000FF2B0ED0FFF78EFA0446002800F0B880B4
:105CD000FFF78EFF06F11800FFF77EFB06F11809AB
:105CE00008B901240EE04946002007F039FE0746B6
:105CF0000028F6D0002008F11C0107F031FE824692
:105D000020B90024204607B0BDE8F08F49460020A6
:105D100007F03CFE0028F4D000264FF00F087C6905
:105D2000DFF8A0B1F3B200930CB1A2456ED1009B95
:105D3000C8F1100B5C1EC8F1180304FB0B34E6B26B
:105D400014F0070418BFC4F108045B4B18BFE4B299
:105D50001A882644F6B29319B3F5A06FD1DC574BDD
:105D6000283A188828302B183044194628440193C3
:105D700009F046F8019B32461846002109F0AAF8BE
:105D8000AB7985F828302B23AB71B6F1080348BFF7
:105D900006F1FF33DB1085F82930032385F82A301C
:105DA000009B85F82B3008EB081385F82C30230175
:105DB00085F82D30424B341B1C44424B02AD9B698D
:105DC000A84400937B699A450DD03946009B28462C
:105DD000A4EB0B0498475A464146204608F09AFF28
:105DE0007F69002FEED13946009B2846984795E8F9
:105DF0000F0089E80F00304608F018FA2E4B2D48A6
:105E00001988283989B20AF080FA6AE72146DBF856
:105E1000183002A8984700232B4A02A911F801CB99
:105E200012F8010B844504D0984506DA64690136FE
:105E300078E70133102BF1D1F8E75FFA83F8F5E743
:105E400006F1080007F0AEF880B3204BF27993F822
:105E500006319A422AD1184D2A88B2F59F6F3FF633
:105E600051AF06F12801283A06F1300008F0C8FFCA
:105E7000B379B8F84E2086F8283040F26343738532
:105E8000130A43EA0223F38598F80D300820B47111
:105E900086F8294086F82C4086F82D3008F0C6F99F
:105EA00029883046283989B20AF02FFAFFF704FD15
:105EB000044627E75C3A00204C3A00207A2B002069
:105EC000843A0020E4042100743A0020DC380020E9
:105ED0006434002008B50A48037B63B1094B0A49C2
:105EE0001B88407B2C335A185B5C984203D1D178D5
:105EF0009078FFF761FCBDE8084008F0DDB900BF0D
:105F0000643400207A2B00205C3A00202DE9F04315
:105F10008FB02622002104A808F0DCFF434B444C3C
:105F20001E88444B06F12C02D718217BD25C8DF8D9
:105F3000322031B3617B914223D1E84608330FCB45
:105F400088E80F00102200210DEB020008F0C2FFCC
:105F5000394B1D882C3DAD1BADB2032D11D9237ECD
:105F6000FA788DF833307B78ADF830208DF8353005
:105F70005B060BD40426B54214DC404604A9FFF7A7
:105F8000F5FB08F099F90FB0BDE8F083132DF8D9AF
:105F90001022391D04F11C0008F08EFE0028F0D1FB
:105FA0001426E8E7BA5D344612B3731C9D42E8DD5F
:105FB000BB195B7802331E44AE42E2DC052A19D0DD
:105FC000062AD8D1052BDCDD3A195279132B8DF82E
:105FD0003320D0DDA31D3B4404AC03F1100C22465A
:105FE00018685968083303C263451446F7D1C2E7FD
:105FF0000123E0E7032BC4DD3A1992F803908DF8F2
:10600000349009F107094FEAE90909F104029A42BB
:10601000B7D11022002108A808F05CFF211D4A46D4
:10602000394408A808F076FEA5E700BF7A2B0020C7
:10603000643400205C3A00204C3A00202DE9F047FF
:106040009CB05C22002105A808F044FF0123ADF8B4
:10605000243040F60843864A864CADF82E30864BF5
:106060000DF10408CDE90C2304F108030FCB88E8F7
:106070000F00824A824B17881B882C3FFF1ABFB241
:10608000172F31D92C331D191B5D02218DF82C30AF
:106090006B7828468DF82B3009F005FD2B79ADF88B
:1060A000260023F07F028DF82820C3F3C20203F0FC
:1060B00007038DF82A306B798DF829208DF82D3063
:1060C00005AC05F1080305F1180622461868596861
:1060D000083303C2B3421446F7D11824A74208DCA0
:1060E000404605A9FFF774FA08F0E6F81CB0BDE8D1
:1060F000F0872B5DF3B1621C9742F5DD2A195678C3
:10610000023604EB0609B945EEDC023B062BEBD860
:1061100001A252F823F000BF396120009B612000EA
:10612000D9612000E9602000E9602000E9602000DA
:106130002F6220000126E4E7052ED5DD2B191A7900
:1061400093F803C0D00940EA4C008DF86900C2F30F
:10615000011002F00F0299788DF86B205A798DF8B2
:1061600068108DF86A008DF86C2049B1072909D1B3
:10617000072EB9DD2846A11D09F095FCADF86E008B
:106180004C46ABE70229AFD1072EADDD9A79DB791A
:106190008DF86E208DF86F30F2E7072EA4DD2B19F5
:1061A00093F802A0DB782846211D8DF84D308DF83C
:1061B0004CA009F063FC0AF10702D210D31DB342D0
:1061C000129091DABAF1800F8ED804F108012944B7
:1061D0000EA808F09FFDD3E7102E85D12B19DA7891
:1061E000A11D8DF82E201A7928468DF82F205A7976
:1061F0008DF8302009F057FC04F10801ADF83400A7
:10620000284609F050FC04F10A01ADF83600284692
:1062100009F049FC5B7BADF8240004F10E0128462F
:106220008DF8313009F03FFCADF83200A8E7202EA0
:106230007FF45AAF2B199A78802A8DF864203FF6A4
:1062400053AFDB7804F1080128468DF8653009F07A
:1062500015FC10342C44189014AA04F110061346AF
:1062600020686168083403C3B4421A46F7D187E74F
:10627000001E3C005C3A0020000480004C3A0020E4
:106280007A2B002008B5084B1B7B43B10748017EE1
:106290000830A1F1FF0359425941FFF751FABDE817
:1062A000084008F009B800BF643400205C3A0020C0
:1062B00010B50446FFF7F4F80022084B08491B8884
:1062C0002C335818427007485A54944218BF20463D
:1062D000BDE8104002239B2107F090B97A2B0020E3
:1062E0005C3A0020A03C00202DE9F0478046FFF7F3
:1062F000D7F800F0CBFD18B1B8F1000F00F0D18055
:10630000694B6A4D1B886A4A697B2C339C189954E7
:1063100095F85230637000F0B9FD002840F0B48069
:10632000B5F84E200221204609F0C3FB95F8532012
:1063300095F85430002A18BF8022A97B03F0070388
:1063400043EAC10313432371EB7B5A4E637100236D
:1063500004F10802A371E37106F11007334603CB81
:10636000BB42106051601E4602F10802F6D100F0F7
:106370008DFD002840F093802A78002A00F08F805D
:106380000623022163766B78072A4FEA5300E076F2
:10639000A8784FEAC31343EA0013E878217643EA6A
:1063A0000003A276237772D1617720461E21EA8806
:1063B00009F07FFB20260423A3550E234FF0000A8B
:1063C000A7197B702B7C2046FB706B7CAA8A3B71E3
:1063D000AB7CB11D7B7187F802A009F06AFB2046F7
:1063E000EA8A06F1080109F064FBAB6820461A8CC2
:1063F00006F10A0109F05DFB2B7E20467B736A8B58
:1064000087F80CA006F10E0109F053FB95F8403017
:1064100006F1100943B3082204F809201E22BB74B8
:1064200095F841302046FB747A7406F11401EA6B4A
:1064300009F030FBEA6B06F1180109F02BFB06F1BD
:106440001C031D4A44F803A006F120031C4402F17A
:106450001005134603CBAB42206061601A4604F17D
:106460000804F6D106F1300900F010FD20B9134BF5
:10647000B8F1000F08BF98464B464046BDE8F047CC
:1064800001229B2107F0BAB84FF6FF724AE7022AB1
:1064900007D1AB796277A377EB79E3778AE71826A0
:1064A00089E7BDE8F08700BF7A2B00206434002024
:1064B0005C3A00208034002090340020A03C002072
:1064C0002DE9F041074600F047FD2D4E0446706C63
:1064D00009F050FB0546FEF7E3FF337B002B4CD061
:1064E000736C002B49D0002C47D0002D45D0B37BD6
:1064F000002B42D0234B24491A88707B2C3253182E
:106500005054002297420CBF11468021597096F8D2
:1065100058109A70D97005219A7180221971122130
:10652000DA712246597104F1100003F1080152F8A2
:10653000044B824241F8044BF9D106221A76142208
:10654000124C5A76002203CCC3F81E002846C3F82A
:1065500022109A76DA761A775F7750F8082F9B2107
:10656000C3F826204268A4F10800C3F82A20BDE839
:10657000F0412E23022207F041B8BDE8F08100BFB0
:10658000643400207A2B00205C3A00208034002004
:1065900070B504460E461546FEF782FF094B0A49C0
:1065A0001B880A4A497B2C3399549818002386701B
:1065B0004370C57004232046BDE8704003229B2130
:1065C00007F01CB87A2B0020643400205C3A0020CD
:1065D00008B5074806F06CFF064806F069FF064854
:1065E00006F066FFBDE80840044806F061BF00BF42
:1065F000B0060020A4060020980600208C0600208B
:106600000022014B1A7070476434002070B50546B3
:1066100009F075FA0B4B0446586C09F070FA2B68B8
:106620000646BF3443B1FCF731FD2B68C01AB0F504
:10663000963F01D9002070BDB442B4BF00200120B4
:10664000F9E700BF6434002038B5044678B1094B3F
:10665000DD8A09F054FAA28853194FF6FF7293426B
:1066600028BF1346834238BF034698B238BD4FF661
:10667000FF70FBE76434002070B50D46044648B354
:1066800009F05AFA061E18BF01261DB1284609F066
:1066900053FA40B92EB9002403E02846FFF7B6FFAD
:1066A00030B1204670BD9EB10C4E726CA242F4D047
:1066B000736C9D4203D12046FFF7A8FF40B92046E6
:1066C00009F01DFA0646284609F019FA8642E8D371
:1066D0002C46E6E70029DED02646D7E764340020C2
:1066E00010B500F02BF828B1BDE81040034B9B68B3
:1066F0005B6918474FF6FF7010BD00BF643400207F
:1067000008B50C4B0146D3F82821824204BF002271
:10671000C3F82821D3F80421824204BF0022C3F821
:106720000421054B1868FDF70DFFBDE8084000F097
:1067300087BB00BF64340020E0060020024B014606
:10674000186809F0C0B800BFE006002020B1044B73
:106750009B685B6903B118474FF6FF70704700BF35
:1067600064340020024B01461868FDF711BF00BFDA
:10677000E00600202DE9F8431D4E8046357B45B1EB
:106780001C4F00253868FDF737FE4FF6FF790446A9
:1067900014B92846BDE8F8832046FFF7D7FF4845DF
:1067A0001AD0F38A834217D8B28A3AB1B6F84C307D
:1067B00013444B4528BF4B4698420DDCB368204636
:1067C000DB68984740B1B8F1000F0BD1B368284699
:1067D00021469B699847054621463868FDF7E6FD46
:1067E0000446D5E7204609F0D3F90028EED1F3E7B7
:1067F00064340020E006002070B50446104D686C3B
:10680000A0421CD00F4E214604F0C6FA696C3068D5
:10681000FDF7B6FE21463068FDF7AAFE686C09F068
:10682000A9F906F0FFFA06F0E5FA204609F0A2F908
:10683000002106F00DFB01236C6485F85B3070BD10
:1068400064340020E006002038B50A4D0020FFF730
:10685000D3FF2868FDF7D0FD044618B9BDE83840DD
:10686000FEF71EBE2046FFF74BFF21462868FDF7C6
:106870009DFDF1E7E006002008B509F013FC06F0E5
:1068800095FA034B01461868BDE8084009F01BB8AB
:10689000E006002070B5FEF7A5FC064610B1002406
:1068A000204670BDFFF766FF04460028F7D009F0C8
:1068B0006FF90C4D10B1C5F82861F1E7D5F8283112
:1068C0001BB9C5F8284100F04BFA6B6CA342E7D026
:1068D0000120FFF74FFF18B96B6C002BE0D1DEE70A
:1068E0000446DDE764340020024B03491868FDF7D5
:1068F00045BD00BFE00600200167200008B5054B3C
:10690000D3F8040109F036F918B1BDE80840FFF7E3
:10691000EBBC08BD643400200348002290F85C11F1
:1069200000F59670FFF734BE64340020024B1B7BE9
:106930000BB1FEF7FFBC70476434002007B5044B71
:106940001B6800930023FCF76FFD03B05DF804FBA8
:1069500060340020F8B580264FF47A77144C4FF459
:10696000FA6594F8551006FA01F1B1FBF7F3B1FBA3
:10697000F5F52366FEF77EFB05FB00F14FF6FF7091
:10698000B1FBF0F1236E29445B1A2366012304F165
:10699000A400084AA4F85630FFF7D0FF94F8550039
:1069A00006FA00F0B0FBF7F0BDE8F84004F0D2B909
:1069B00064340020B969200010B5FEF75FFD60B3B4
:1069C000164B93F856201C46CAB1FEF70BFC28B9AB
:1069D000A37C1BB194F857209A4206D2B4F84E30EB
:1069E0000020A4F85030FFF77FFC002384F85630D5
:1069F000216E0B4A0B48BDE81040FFF79FBF597C42
:106A0000187C93F8552001448A42BCBF013283F8B8
:106A10005520BDE81040FFF79DBF10BD6434002035
:106A2000B96920000835002008B5FEF723FB4FF4B4
:106A30002071B0FBF1F303FB1101BDE8084089B2FE
:106A4000024A034801F5A071FFF778BF896A200068
:106A500048350020012310B50A4C84F85A30FFF75E
:106A6000E3FF94F8583094F958200133002AB4BF5A
:106A7000DBB203F07F03207E84F85830BDE810407D
:106A8000FFF71EBD6434002010B50B4C94F85A304B
:106A9000207E013384F85A30FFF712FD94F85A3003
:106AA000042B03D8BDE81040FFF7BEBF0348BDE884
:106AB0001040FEF7ADBC00BF64340020490B21003C
:106AC00008B50B48FCF704FD80B1FEF7D3FA4FF48C
:106AD0007061B0FBF1F303FB1101BDE8084089B21E
:106AE000044A034801F5F061FFF728BF08BD00BF65
:106AF000300E0020F96A200008B5FEF773FB88B954
:106B0000094B1A7B3AB15A6C2AB1B3F84E204FF6B2
:106B1000FF739A4206D10020FFF7CAFBBDE8084088
:106B2000FFF7CEBF08BD00BF6434002010B50F4C86
:106B3000237B43B9FFF7C4FFFEF7B2FCBDE810406A
:106B40000B48FCF793BC3C20FEF724FC3C2006F0ED
:106B5000A1FF237B002BEDD0636C002BEAD04FF616
:106B6000FF73B4F84E209A42E6D1E3E76434002084
:106B7000500E002010B5FEF781FC90B1094C94F83E
:106B8000553013B1627C9A420BD200F07FF940B9C4
:106B9000637C84F8570084F85530BDE81040FFF757
:106BA000D9BE10BD64340020054B1A7B3AB1C3F83E
:106BB00004010021034A03F1C400FFF7BFBE704780
:106BC00064340020FD68200010B5094C237B73B1AC
:106BD000A37B63B1FEF74EFAC0F30801054A04F146
:106BE000E40001F58071BDE81040FFF7A7BE10BDBD
:106BF00064340020556A2000F0B40D4A0D46117B24
:106C0000034699B102F5967600F1100734461868EC
:106C10005968083303C4BB422646F7D1A2F85C5139
:106C20000021F0BC034A0448FFF788BEF0BC70475F
:106C30006434002019692000A035002010B50F4BE6
:106C40001A7BD2B11C7EFF2C17D0598B4C43FEF718
:106C500011FA4FF4F053B0FBF3F202FB13039BB2B3
:106C6000E40103F5F0539C4288BFE41A2146BDE8D5
:106C70001040034A0348FFF761BE10BD6434002092
:106C8000556A2000483500202DE9F041FCF7FEF957
:106C9000274D80462C7B44B1D5F828412CB9686C2F
:106CA00030B108F075FF18B96C6C2046BDE8F08172
:106CB000FEF7E0F90325B0FBF5F505EB4505451BAF
:106CC0001C4FADB23868C5B1FDF796FB4FF6FF76A5
:106CD0000546002DE9D0284608F05AFF38B9284665
:106CE000FFF734FD0CB1864201D906462C462946F1
:106CF0003868FDF75BFB0546EBE7FDF77DFB0646D5
:106D00000028D2D0304608F043FF60B9304608F082
:106D100038FF40B103681CB1A8EB0302AA4202D9B4
:106D20003446A8EB030531463868FDF73FFBE6E73C
:106D300064340020E006002010B5074C237B4BB1E3
:106D400008F02FFF054A014604F58470BDE81040A5
:106D5000FFF7F4BD10BD00BF64340020BDFB200070
:106D600010B5074C237B53B1FEF784F9054AC0F3F5
:106D7000080104F58470BDE81040FFF7DFBD10BDC9
:106D800064340020BDFB200010B5074C237B53B1B9
:106D900004F18400FCF79CFB28B904F18400BDE8F1
:106DA0001040FCF77FBB10BD6434002010B5094CC7
:106DB000237B6BB104F18400FCF78AFB40B104F142
:106DC00084004FF41641BDE81040034AFFF7B6BDFA
:106DD00010BD00BF643400202D69200008B54FF4B9
:106DE000F051044A0448FFF7A9FDBDE80840FFF749
:106DF00067BE00BF2D6B2000500E002010B50F4C59
:106E00002046FCF74FFB04F12000FCF74BFB04F19C
:106E10004000FCF747FB04F16000FCF743FB04F182
:106E20008000FCF73FFB04F1A400FCF73BFB04F1FE
:106E3000D800BDE81040FCF735BB00BFC8340020C7
:106E40000448037B23B10021034A6430FFF776BD79
:106E5000704700BF643400209FFB2000044B187B68
:106E600020B193F85C00003818BF0120704700BFC4
:106E700064340020044B187B20B193F85C00831E1F
:106E800058425841704700BF64340020014B1878C5
:106E9000704700BFFA2B002038B50D46044610227B
:106EA000002108F017F82A7D294607322046D2082B
:106EB00007F030FF2046BDE83840014909F087B9A6
:106EC000543A002008B540F2FF230D480380002308
:106ED00043808380C3800381438183814FF4D053F7
:106EE000C38106F093F8FEF7DFFCFFF7FDFCFFF728
:106EF00075FFFFF76DFBBDE8084006F0BBBD00BFA6
:106F0000A03C002010B5094C237B012B0DD1FFF7CD
:106F100015FC50B1D4F82831984204BF0023C4F8BE
:106F20002831BDE81040FFF78BBF10BD643400204E
:106F30000B46024610B550B151B1064C03CC10605F
:106F40000120516053F80C1F91605968D16010BD49
:106F50000846FCE7803400202DE9F843174D2E7BCE
:106F600046B395F840602C35002E08BF0025002759
:106F7000134CF60804F1540994F82030A3B194F8A6
:106F80002130012B10D1237CFE2B02D1637C802B7E
:106F90000AD004F110087DB132464146284607F078
:106FA0008BFE002808BF47461C344C45E4D13846C8
:106FB000BDE8F8833546DAE74746F5E76434002054
:106FC000DC3800201FB501466846FFF765FF6846BC
:106FD00005F0E8FF08B106F09FF80022024B83F8A5
:106FE000402005B05DF804FB643400207FB50E46F8
:106FF0001546044640B34B1E7F2B25D812F04000A7
:1070000020D010220021114807F064FFF21DD208A1
:1070100021460E4807F07EFE4FF0FF330C496846CC
:1070200081F84060CB6381F841502C31FFF734FF89
:10703000684605F0B7FF014618B90122684606F018
:1070400007F8012004B070BD0020FBE79034002059
:1070500064340020014B1868704700BF700E002098
:10706000064B18685A6808331B681B0443EA02235E
:10707000034A0343106843EA0060704740500D40E4
:107080004C500D40014608B5104A1368DB07FCD58B
:1070900072B6FFF7E5FFC1F10703C34258BFC11D38
:1070A0000B4B0A0E1A60C1F3074243F8042CC1F3DC
:1070B000072243F8082CCAB243F80C2C62B6054BE1
:1070C00019604FF40032044B1A6108BD50500D4056
:1070D0004C500D40700E002000E100E008B5FCF7B8
:1070E000B5FF0022084B1A604FF40032074BC3F87B
:1070F0009021C3F89020BFF34F8FBFF36F8FBDE88F
:10710000084000F019B800BF700E002000E100E058
:1071100010B50246084607490C6844B95360029B03
:10712000106093600A60FFF7ADFF204610BD03209A
:10713000FCE700BF740E0020044B186820B1002249
:107140001A60D0E901311847704700BF740E002063
:107150002DE9F04104880546752C20D07C2C3DD0CB
:10716000002C4ED1FDF768FE284E294B294FDFF841
:10717000B08018703460336857F823202AB9264A43
:10718000137075232B8001203EE008F803409368BC
:10719000002180209847336801333360EBE70023F8
:1071A0001E4A1360194A1360184B1B4A1B68127859
:1071B0009A4204DC194B1B68002BF0D1E1E7184A16
:1071C000D256002A19DA134A002052F82320104B15
:1071D0001978FDF793FE28B97C23D3E70C4B1B7875
:1071E0008B42D0D1094B0E491A688B5C03F07F03A8
:1071F0008B540A4A136801331360044A136801333D
:10720000D1E7002303800320BDE8F0817C0E00203D
:10721000B33C002040070020FB2B0020780E00200C
:10722000B53C002070B505880446672D09D0792D3E
:1072300031D0002D35D1FDF7FFFD1C4B18701C4BD4
:107240001D601C4E1A4D0AE00A282B6810D00D282C
:107250000ED07E2B03DC5A1C2A60174AD0543046CD
:1072600008F0B7FB431CEFD16723238001201BE00C
:107270005A1C2A600025104A2846D5540B4B197811
:10728000FDF73CFE0D4B2A4685211868FDF736FEBA
:1072900018B97923E9E78529E8D10022044B1A605F
:1072A000CFE700230380032070BD00BFB43C002063
:1072B000800E0020840E0020FC2B00206034002073
:1072C00038B50E4C01462378254653B90C4808F0D2
:1072D0006DFB08B9012323700A48FDF74FFE01201A
:1072E00038BD0A2801D00D28F6D1054808F05EFB0C
:1072F0000028F1D000232B70EEE700BF7C2C00208B
:10730000840E002004070020044B054A00211A6067
:107310007F2204489A809971FDF718BE840E0020E0
:107320007D2C002004070020F7B506460D460024FA
:10733000084FAC4201D303B0F0BD301901A908F0E9
:107340006CFC04343846BDF80410FDF7F5FCA4B21B
:10735000EFE700BF740B21002DE9F04706460F460A
:107360009946904686B01AB97F211C48FBF70AF867
:10737000002003F029FD054660BB06B0BDE8F0879C
:1073800005A908EB040008F048FCBDF814105145AD
:1073900003D10434A145F3DCEFE7114B114A124845
:1073A000022F18BF1A46FDF7C7FC3046FDF702F959
:1073B0000E4808F0EAFA01230293BDF816300022C5
:1073C0000193BDF81430394600932846334603F044
:1073D000A9FDD2E700244FF6FF7ADBE77E0B210000
:1073E0007B0B2100780B21008A0B2100D40C21009B
:1073F00030B50D461446194685B000B11AB9C12101
:107400000C48FAF7BFFF9BB9CDE900050DF10A035F
:10741000012003AA08F053FC50B9204601F026FCD5
:1074200030B102212046BDF80A30039AFFF794FFDD
:1074300005B030BD7E0B21002DE9F3410F46064615
:1074400018B9A2210F48FAF79DFF002003F0BCFCF9
:10745000054698B902B0BDE8F08101A9301908F0DD
:10746000DCFBBDF80410414504D02846BDF80620D9
:1074700008F0BBFD0434A742EFDCEBE700244FF635
:10748000FF78F8E77E0B210030B50D46144619460B
:1074900085B000B11AB9D9210B48FAF773FF8BB93F
:1074A000CDE900050DF10A03012003AA08F007FC4D
:1074B00040B9204601F0DAFB20B1BDF80A1003986C
:1074C000FFF7BAFF05B030BD7E0B21002DE9F04774
:1074D0008AB0044699461546129E5FFA81F822B991
:1074E0004FF4BD71AD48FAF74DFF28B1012800F007
:1074F000FF800AB0BDE8F08716B940F28D11F1E7C0
:10750000B8F1010F0DD0B8F1020FF2D1009313467C
:107510000DF11D0208F09BFB002800F08180A048BF
:1075200007E0009313460DF11D0208F090FB18B11F
:107530009C4808F02AFADCE7CDE9005941460DF1F4
:107540001E0309AA08F0BBFB05460028F0D19DF8F0
:107550001D109548FDF7F0FB3046FDF72BF89348DA
:10756000FDF7EAFBBDF81E100998FFF7DDFE904815
:1075700008F00BFA284603F027FC80460028B8D014
:107580009DF81D30002BB4D0BDF81E30002BB0D0BC
:1075900010222946874807F09DFC2F464FF010091E
:1075A000DFF810A2BDF81E209DF81D30A24201D9BF
:1075B0009D4218DB9D429CD17F48FDF7BDFB3046C4
:1075C000FCF7F8FF7A4808F0E0F97A4B7B4ACDE9FE
:1075D0000337CDE901620097F0224FF0000101204E
:1075E00001F0E8FE85E7099808A9204408F015FB9A
:1075F000BDF820104046BDF8222008F018FD0146D5
:1076000058B9ABB2009301200423CDE901A908AA1F
:1076100008F02EFB0437BFB201350434E4B2C1E7F1
:107620004146CDE900590DF11E0309AA08F047FBB8
:1076300000287FF474AF9DF81D106148FDF77CFBB6
:107640003046FCF7B7FF5948FDF776FBBDF81E1032
:107650000998FFF769FE564808F097F9204603F0AD
:10766000B3FB074600283FF444AF1022214651489F
:1076700007F030FC9DF81D5015B1BDF81E5095BBAC
:107680004D48FDF759FB3046FCF794FF484808F099
:107690007CF9484B4B4ACDE90335CDE901620095B1
:1076A0009AE7099808A9204408F0B7FA3846BDF8C7
:1076B0002220BDF8201008F0BAFC68B110234FF06A
:1076C0000001CDE9019301200423CDF8008008AA30
:1076D00008F0CEFA0435ADB20434E4B2BDF81E3081
:1076E000A342DED8CCE70025DFF8C890A846F5E72E
:1076F00016B940F2A511F5E6304601F0B7FA0028B8
:107700003FF4F7AE304601F045FD00283FF4F1AEFE
:10771000B8F1000F7FF4EDAE01F022FC012807461E
:1077200003D002281ED0284803E74146CDE900597E
:1077300008AB09AA08F0C3FA08B12448F9E62448BE
:10774000FDF7FAFABDF820100998FFF7EDFD18488B
:1077500008F01BF939463046BDF82030099AFFF78A
:10776000FBFDC6E641462046CDE9005908AB09AA13
:1077700008F0A5FA0028E0D11648FDF7DDFABDF8BB
:1077800020100998FFF7D0FD094808F0FEF8BDF871
:1077900020100998FFF750FEABE600BF7E0B2100DA
:1077A000430C2100B70B2100DF0B2100FC0C210052
:1077B000D40C2100FD2C00201C0C2100F1732000B2
:1077C0006E0C210089742000480D2100AE0C2100B0
:1077D000D70C21000E0D2100B0230B49024603FBFC
:1077E0000013002030B5014604465881074B9D78B0
:1077F00025B11D78954204BF9C70013001310C29E0
:1078000003F17103F3D130BD900E0020182D00203C
:107810000122044BFD211A70002299705A70DA700F
:10782000704700BF0D2D002010B5134C0220A17928
:10783000FDF7DCF9A379112B09D1218D638D9942D4
:1078400028BF1946BDE810400120FDF7CFB9062B2F
:1078500006D10A4B1B8828331A19195B5388EEE7A7
:107860003A2B06D1054B28341B88195B49BA89B2DB
:10787000E8E70021E6E700BF5C3A00207A2B002011
:1078800030B513780446087A83F0020398421FD17A
:10789000487A537898421BD1887A9378984217D1C6
:1078A000C87AD378984213D1087B137998420FD1C4
:1078B000487B537998420BD1887B9379984207D1C2
:1078C000C87BD379984203D10320A040C0B230BD19
:1078D0000E4B08891D461A6860B94889B0F57F4F7C
:1078E00008D18889FE2805D1C989022022F8021B07
:1078F0001A60EAE701F1080303CB083242F8080CEA
:1079000042F8041C01202A60DFE700BFF00F0020CE
:1079100010B5084C01462378012B08D10822A01C81
:1079200007F0CAF900280CBF2046002010BD002037
:10793000FCE700BF0D2D002008B5044B00219B681B
:1079400003489847BDE8084006F05EBD6005210089
:10795000B979200038B5134B13491C78134B0144F7
:107960001D68134B2A461B68181907F0D3F96019D4
:1079700080B2FDF75DF8FDF721FB044668B1FFF723
:10798000DBFF2046FDF752FB2046FDF739FB094B94
:107990001B68012B01D0032B01DD002038BD012025
:1079A000FCE700BF643200205C3A0020FC0F00209E
:1079B00000100020F40F002070B5124B0C461B681D
:1079C000154613B108469B6898470F4B0D201C6065
:1079D000FDF720F90D49064607F0B0FE80B92A46AA
:1079E00021463046FCF73CFA094B214630462A46F0
:1079F0005B6C984729462046BDE8704008F0B6BB4E
:107A000070BD00BF8C0E0020F40F0020E4052100A3
:107A1000E4042100F8B50E460546FDF713F8114BB6
:107A20001978441A631E6D2B19D80F4B0022184683
:107A30009F787FB971235343C218567094700B4AD4
:107A4000C5541568033322462944184407F062F9E7
:107A50002046F8BD01320C2A03F17103E8D14FF042
:107A6000FF34F5E764320020182D002000100020BC
:107A70002DE9F0414FEA121802F00F04B8F10F0F90
:107A800008BF4FF010080F2C07461D4608BF1024F2
:107A900011B1424607F03EF908EB04020F2A06DC5A
:107AA0000021C2F1100207EB080007F013FAF4B14D
:107AB000144A154D16682B689B1B1E19FCF7C2FF54
:107AC00086421CDC2E68C4F1100022463146384440
:107AD00007F020F9022C06D1B8F10A0F9FBFFF234F
